S01C000048656C6C6F5F456D6265646465645F576F726C642E7372656344
S11300000C948E000C94AB000C94AB000C94AB00DD
S11300100C94AB000C94AB000C94AB000C94AB00B0
S11300200C94AB000C94AB000C94AB000C94AB00A0
S11300300C94AB000C94AB000C94AB000C94AB0090
S11300400C94AB000C94AB000C94AB000C94AB0080
S11300500C94AB000C94AB000C94AB000C94AB0070
S11300600C94AB000C94AB000C94AB000C94AB0060
S11300700C94AB000C94AB000C94AB000C94AB0050
S11300800C94AB000C94AB000C94AB000C94AB0040
S11300900C94AB000C94AB000C94AB000C94AB0030
S11300A00C94AB000C94AB000C94AB000C94AB0020
S11300B00C94AB000C94AB000C94AB000C94AB0010
S11300C00C94AB000C94AB000C94AB0048656C6CC6
S11300D06F20576F726C64210D0000416464722EAE
S11300E0204F666673657420202030202031202044
S11300F03220203320203420203520203620203781
S11301002020382020392020412020422020432054
S113011020442020452020460A0D000011241FBE43
S1130120CFEFD8E0DEBFCDBF11E0A0E0B1E0E8E85A
S1130130FAE002C005900D92A435B107D9F721E089
S1130140A4E5B1E001C01D92A43AB207E1F70E9410
S1130150AD000C9442050C94000060E875E280EC5C
S113016090E00E94A60160E875E288EC90E00E94AD
S1130170A60160E875E280ED90E00E94A6010E946D
S1130180E401EC0110E588EC90E00E94DE01682FA8
S113019088EC90E00E94D8016AE088EC90E00E942C
S11301A0D8016DE088EC90E00E94D8014FE050E067
S11301B0BE018CEC90E00E94E7014FE050E0BE01EC
S11301C088EC90E00E940502FE01812F11928A952D
S11301D0E9F760E071E0CE010E9451024EE050E088
S11301E0BE0188EC90E00E94050261E370E08EE0BD
S11301F091E00E947E01FE01812F11928A95E9F718
S1130200C2CFAF92BF92CF92DF92EF92FF920F9341
S11302101F93CF93DF93EC017B010E94E4018C01D7
S1130220CE0DDF1DDF93CF938FE391E09F938F93E8
S11302301F930F930E94580240E0B80188EC90E0AD
S11302400E940502FF92EF9283E491E09F938F93C3
S11302501F930F930E94580240E0B80188EC90E08D
S11302600E9405026E01E0E1CE0ED11C8DB79EB74F
S11302700C960FB6F8949EBF0FBE8DBF7E018DE421
S1130280A82E81E0B82EF70181917F011F928F93F0
S1130290BF92AF921F930F930E94580240E0B8019F
S11302A088EC90E00E9405020F900F900F900F9041
S11302B00F900F90EC14FD0431F7699180EE860FD6
S11302C0803608F06EE288EC90E00E94D801CC15EC
S11302D0DD0599F76DE088EC90E00E94D8016AE0B2
S11302E088EC90E0DF91CF911F910F91FF90EF90F8
S11302F0DF90CF90BF90AF900C94D801EF92FF9213
S11303000F931F93CF93DF937C018B010E94E40131
S1130310EC0140E0BC018BED90E00E94E70140E07D
S1130320BE0188EC90E00E940502C0E0D0E0BE016E
S1130330C7010E9401016096C017D107C0F3DF9185
S1130340CF911F910F91FF90EF9008950F931F93FA
S1130350CF93DF93EC018B0120E030E0D901C80199
S113036080589B47A14EBF4FBC01CD0143E0660FAF
S1130370771F881F991F4A95D1F7A9019801E4E0D6
S1130380220F331F441F551FEA95D1F70E942F02F5
S1130390215031093D832C8318821A8286E08A8396
S11303A0198288E18983DF91CF911F910F9108957C
S11303B0FC01208125FFFCCF66830895FC01208188
S11303C027FFFCCF8681089584E591E008954423B6
S11303D021F0FC01962FDB010EC0242F30E0FC013C
S11303E0E20FF31FE491DB01A20FB31FEC934F5F05
S11303F0E111F3CF08C08A2F891B841720F484915C
S11304008D933196F8CF842F0895EF92FF920F9336
S11304101F93CF93DF937C01EB01442321F08B01E5
S1130420040F111D0DC0688110E0662389F0C70117
S11304300E94D8011F5FFE01E10FF11D6081F5CF1D
S1130440C017D10729F06991C7010E94D801F8CFDC
S1130450DF91CF911F910F91FF90EF900895A1E24A
S11304601A2EAA1BBB1BFD010DC0AA1FBB1FEE1F2A
S1130470FF1FA217B307E407F50720F0A21BB30B75
S1130480E40BF50B661F771F881F991F1A9469F7F1
S113049060957095809590959B01AC01BD01CF014D
S11304A00895FB01DC0101900D920020E1F708950D
S11304B0AEE0B0E0EEE5F2E00C9419050D891E897A
S11304C086E08C831A8309838FEF9FE79E838D8355
S11304D0AE01475E5F4F6F89788DCE0101960E9411
S11304E07A02EF81F885E00FF11F10822E96E4E086
S11304F00C943505ABE0B0E0E0E8F2E00C940B05B9
S11305006C017B018A01FC0117821682838181FFC1
S1130510CCC1CE0101963C01F6019381F70193FD14
S1130520859193FF81917F01882309F4BAC18532B3
S113053039F493FD859193FF81917F01853229F4EC
S1130540B60190E00E947104E7CF912C212C312C4C
S1130550FFE1F315D8F08B3279F038F4803279F07A
S11305608332A1F4232D20611DC08D3261F08033CC
S113057069F4232D216016C0832D8260382EE32D6B
S1130580E4603E2E2AC0F32DF8601DC037FC2DC058
S113059020ED280F2A3040F08E32B9F436FC81C1A8
S11305A0232D2064322E19C036FE06C08AE0989EA0
S11305B0200D1124922E11C0EAE02E9E200D11244C
S11305C0222EF32DF0623F2E08C08C3621F4832DA9
S11305D08068382E02C0883641F4F70193FD859176
S11305E093FF81917F018111B3CF982F9F7D955403
S11305F0933028F40C5F1F4F9FE399830DC083361B
S113060031F0833771F0833509F059C021C0F80106
S1130610808189830E5F1F4F88248394912C53011A
S113062013C02801F2E04F0E511CF801A080B180E4
S113063036FE03C0692D70E002C06FEF7FEFC50185
S11306400E9466044C018201F32DFF773F2E16C0F1
S1130650280122E0420E511CF801A080B18036FE30
S113066003C0692D70E002C06FEF7FEFC5010E94E7
S11306705B044C01F32DF0683F2E820133FC1BC058
S1130680822D90E088169906B0F4B60180E290E0DD
S11306900E9471042A94F4CFF50137FC859137FE4A
S11306A081915F01B60190E00E94710421102A94A7
S11306B021E0821A91088114910471F7E8C084360C
S11306C011F0893641F5F80137FE07C06081718168
S11306D0828193810C5F1F4F08C060817181072E56
S11306E0000C880B990B0E5F1F4FF32DFF763F2EE6
S11306F097FF09C090958095709561957F4F8F4FB6
S11307009F4FF0683F2E2AE030E0A3010E94AD0421
S1130710882E861845C0853731F4232D2F7EB22EBE
S11307202AE030E025C0932D997FB92E8F36C1F091
S113073018F4883579F0B5C0803719F0883721F07E
S1130740B0C0E92FE061BE2EB4FE0DC0FB2DF460F5
S1130750BF2E09C034FE0AC0292F2660B22E06C05F
S113076028E030E005C020E130E002C020E132E0C2
S1130770F801B7FE07C060817181828193810C5FAB
S11307801F4F06C06081718180E090E00E5F1F4FB3
S1130790A3010E94AD04882E8618FB2DFF773F2EFF
S11307A036FE0DC0232D2E7FA22E891458F434FE5C
S11307B00BC032FC09C0832D8E7EA82E05C0B82C38
S11307C0A32C03C0B82C01C0B92CA4FE0FC0FE0199
S11307D0E80DF11D8081803321F49A2D997EA92E94
S11307E009C0A2FE06C0B394B39404C08A2D8678CF
S11307F009F0B394A3FC11C0A0FE06C0B21488F49F
S1130800280C922C9B180EC0B21460F4B60180E23E
S113081090E00E947104B394F7CFB21418F42B182B
S113082002C0982C212CA4FE10C0B60180E390E0F5
S11308300E947104A2FE17C0A1FC03C088E790E0E7
S113084002C088E590E0B6010CC08A2D867859F084
S1130850A1FE02C08BE201C080E2A7FC8DE2B601DA
S113086090E00E947104891438F4B60180E390E0AA
S11308700E9471049A94F7CF8A94F301E80DF11D54
S11308808081B60190E00E9471048110F5CF22208E
S113089009F442CEB60180E290E00E9471042A94E9
S11308A0F6CFF6018681978102C08FEF9FEF2B96DA
S11308B0E2E10C942705FC010590615070400110A1
S11308C0D8F7809590958E0F9F1F0895FC01615075
S11308D0704001900110D8F7809590958E0F9F1F5E
S11308E008950F931F93CF93DF93FB01238121FD81
S11308F003C08FEF9FEF2CC022FF16C046815781A3
S1130900248135814217530744F4A081B1819D01AC
S11309102F5F3F4F318320838C93268137812F5F54
S11309203F4F3783268314C08B01EC01FB01008405
S1130930F185E02D0995892BE1F6D80116968D9164
S11309409C911797019617969C938E931697CE01B8
S1130950DF91CF911F910F910895FA01AA272830B2
S113096051F1203181F1E8946F936E7F6E5F7F4F78
S11309708F4F9F4FAF4FB1E03ED0B4E03CD0670FF4
S1130980781F891F9A1FA11D680F791F8A1F911D47
S1130990A11D6A0F711D811D911DA11D20D009F497
S11309A068943F912AE0269F11243019305D3193D9
S11309B0DEF6CF010895462F4770405D4193B3E0C2
S11309C00FD0C9F7F6CF462F4F70405D4A3318F069
S11309D0495D31FD4052419302D0A9F7EACFB4E01A
S11309E0A6959795879577956795BA95C9F70097D2
S11309F06105710508959B01AC010A2E0694579573
S1130A00479537952795BA95C9F7620F731F841FC9
S1130A10951FA01D08952F923F924F925F926F925F
S1130A207F928F929F92AF92BF92CF92DF92EF927A
S1130A30FF920F931F93CF93DF93CDB7DEB7CA1BFB
S1130A40DB0B0FB6F894DEBF0FBECDBF09942A8826
S1130A50398848885F846E847D848C849B84AA84CE
S1130A60B984C884DF80EE80FD800C811B81AA815B
S1130A70B981CE0FD11D0FB6F894DEBF0FBECDBF26
S10B0A80ED010895F894FFCF85
S1130A880A5052494E545F42554646455200426503
S1130A986E2042726F6F6B730A0D20546F6E79204B
S1130AA84C6573736D6569737465720A0D205469B6
S1130AB86D204B656C6C65726D616E6E0A0D002558
S1130AC8702000307825342E345820200025322E0A
S1070AD8325820006C
S9030000FC
