S01C000048656C6C6F5F456D6265646465645F576F726C642E7372656344
S11300000C9466000C9478000C9478000C9478009E
S11300100C9478000C9478000C9478000C9478007C
S11300200C9478000C9478000C9478000C9478006C
S11300300C9478000C9478000C9478000C9478005C
S11300400C9478000C9478000C9478000C9478004C
S11300500C9478000C9478000C9478000C9478003C
S11300600C9478000C9478000C9478000C9478002C
S11300700C9478000C9478000C9478000C9478001C
S11300800C9478000C9478000C9478000C9478000C
S11300900C9478000C9478000C9478000C947800FC
S11300A00C9478000C9478000C9478000C947800EC
S11300B00C9478000C9478000C9478000C947800DC
S11300C00C9478000C9478000C94780011241FBED2
S11300D0CFEFD8E0DEBFCDBF21E0A0E0B1E001C0AA
S11300E01D92A030B207E1F70E94CD000C94930159
S11300F00C940000FC019181862F809598239183B4
S1130100413021F48281682B62830895928189238E
S113011082830895FC018081682381E009F480E0F2
S11301200895FC012181622B61830895FC012281E1
S1130130622B62830895FC01928160956923628336
S113014008950C9496000C949B0060E886E290E07D
S11301500E94910068E083E290E00E94910060E1D7
S11301608CE290E00E94910060E880E290E00E94BE
S1130170910060E886E290E00E94960068E083E2E5
S113018090E00E94960060E18CE290E00E9496006C
S113019060E880E290E00C9496000E94A5000E9422
S11301A05E0160E486E290E00E94760181111CC049
S11301B060E886E290E00E94A3002FEF81EE94E0D5
S11301C0215080409040E1F700C0000060E886E2E2
S11301D090E00E94A1002FEF87E893E12150804036
S11301E09040E1F700C0000064E083E290E00E94E8
S11301F0760181111CC068E083E290E00E94A300B4
S11302002FEF81EE94E0215080409040E1F700C050
S1130210000068E083E290E00E94A1002FEF87E8ED
S113022093E1215080409040E1F700C0000060E17C
S113023080E290E00E94760181111CC060E18CE2B2
S113024090E00E94A3002FEF81EE94E021508040C3
S11302509040E1F700C0000060E18CE290E00E9471
S1130260A1002FEF87E893E1215080409040E1F70F
S113027000C0000060E280E290E00E9476018111FB
S113028090CF60E880E290E00E94A3002FEF81EE1F
S113029094E0215080409040E1F700C0000060E805
S11302A080E290E00E94A1002FEF87E893E12150C3
S11302B080409040E1F700C0000073CF41E060E46B
S11302C086E290E00E947A0041E064E083E290E0FC
S11302D00E947A0041E060E180E290E00E947A00AE
S11302E041E060E280E290E00C947A001F93CF93A7
S11302F0DF93EC01162F0E948A00811110C02FE7B2
S113030089EA93E0215080409040E1F700C000006A
S1130310612FCE01DF91CF911F910C948A00DF9160
S10D0320CF911F910895F894FFCFC8
S9030000FC
