S01C000048656C6C6F5F456D6265646465645F576F726C642E7372656344
S11300000C9466000C9478000C9478000C9478009E
S11300100C9478000C9478000C9478000C9478007C
S11300200C9478000C9478000C9478000C9478006C
S11300300C9478000C9478000C9478000C9478005C
S11300400C9478000C9478000C9478000C9478004C
S11300500C9478000C9478000C9478000C9478003C
S11300600C9478000C9478000C9478000C9478002C
S11300700C9478000C9478000C9478000C9478001C
S11300800C9478000C9478000C9478000C9478000C
S11300900C9478000C9478000C9478000C947800FC
S11300A00C9478000C9478000C9478000C947800EC
S11300B00C9478000C9478000C9478000C947800DC
S11300C00C9478000C9478000C94780011241FBED2
S11300D0CFEFD8E0DEBFCDBF21E0A0E0B1E001C0AA
S11300E01D92A030B207E1F70E947A000C94D00070
S11300F00C94000060E875E280EC90E00E94BE0081
S113010060E875E288EC90E00E94BE0060E875E269
S113011080ED90E00E94BE0065E580EC90E00E94D6
S1130120CA0068E488EC90E00E94CA0065E688ECA6
S113013090E00E94CA006CE688EC90E00E94CA003D
S11301406CE688EC90E00E94CA006FE688EC90E0D0
S11301500E94CA0060E288EC90E00E94CA0065E553
S113016080ED90E00E94CA002FEF83ED90E32150D0
S113017080409040E1F700C00000CECFFC01158222
S113018087E684831082128286E08283118288E16A
S113019081830895FC01208125FFFCCF66830895A7
S10701A0F894FFCFFD
S9030000FC
