:100000000C9466000C9483000C9483000C94830081
:100010000C9483000C9483000C9483000C94830054
:100020000C9483000C9483000C9483000C94830044
:100030000C9483000C9483000C9483000C94830034
:100040000C9483000C9483000C9483000C94830024
:100050000C9483000C9483000C9483000C94830014
:100060000C9483000C9483000C9483000C94830004
:100070000C9483000C9483000C9483000C948300F4
:100080000C9483000C9483000C9483000C948300E4
:100090000C9483000C9483000C9483000C948300D4
:1000A0000C9483000C9483000C9483000C948300C4
:1000B0000C9483000C9483000C9483000C948300B4
:1000C0000C9483000C9483000C94830011241FBEB5
:1000D000CFEFD8E0DEBFCDBF11E0A0E0B1E0E2E2BB
:1000E000F2E002C005900D92A430B107D9F721E0EB
:1000F000A4E0B1E001C01D92A435B207E1F70E946F
:1001000085000C940F010C94000060E875E280EC0F
:1001100090E00E94CA0060E875E288EC90E00E94DE
:10012000CA0060E875E280ED90E00E94CA000E947B
:10013000E20040E550E060E071E088EC90E00E9471
:10014000E50088EC90E00E94DC00C82F68E488ECB1
:1001500090E00E94D60065E688EC90E00E94D60010
:100160006CE688EC90E00E94D6006CE688EC90E0AB
:100170000E94D6006FE688EC90E00E94D60060E214
:1001800088EC90E00E94D6006C2F88EC90E00E94F2
:10019000D600D7CFFC01158287E6848310821282B5
:1001A00086E08283118288E181830895FC012081A9
:1001B00025FFFCCF66830895FC01208127FFFCCF3B
:1001C0008681089584E091E00895EF92FF920F9365
:1001D0001F93CF93DF937C01EB01442321F08B012C
:1001E000040F111D0DC0688110E0662389F0C7015E
:1001F0000E94D6001F5FFE01E10FF11D6081F5CF67
:10020000C017D10729F06991C7010E94D600F8CF25
:10021000DF91CF911F910F91FF90EF900895F89487
:02022000FFCF0E
:04022200776F77007B
:00000001FF
